:100000000C94A2010C94CA010C94CA010C94CA016C
:100010000C94CA010C94CA010C94CA010C94961554
:100020000C94CA010C943B170C9468240C94342350
:100030000C94CA010C94CA010C94CA010C94CA0114
:100040000C94CA010C94170F0C94CA010C94CA01A9
:100050000C94CA010C94CA010C94CA010C94551B4F
:100060000C94CA010C94551F0C94871F0C94CA0160
:100070000C94CA010C94CA010C94CA010C94CA01D4
:100080000C94CA010C94AB170C94CA010C94CA01CD
:100090000C94281A0C94CA010C94FF100C94CA01F9
:1000A0000C94CA010C94CA010C94CA01850F8A0FE2
:1000B0008F0F940F9A0FA00FA50FAF0FA01CA31CBA
:1000C000921C961C9C1CC41CC41CC41CA71CAB1CEE
:1000D000AF1CB51CB91CC41CBF1C08000000BE929C
:1000E0002449123EABAAAA2ABECDCCCC4C3E00007D
:1000F0000080BEABAAAAAA3E00000000BF0000001C
:10010000803F0000000000084178D3BB4387D11333
:100110003D190E3CC3BD4282AD2B3E68EC8276BEDB
:10012000D98FE1A93E4C80EFFFBE01C4FF7F3F00A5
:1001300000000000070605040100080A0B0C0D0969
:100140000000000200090F0000030401000C000081
:100150000000000000000000000000000000040893
:1001600002011040804010204080408008020401BD
:10017000804020100201108010204040040404043C
:10018000040304050202020204030202020206063C
:100190000606060604040202020400000000250010
:1001A00028002B002E003100000000002400270052
:1001B0002A002D003000080B000202020100090491
:1001C00000000102020000052400100105240101C5
:1001D000010424020605240600010705810310001E
:1001E0004009040100020A00000007050202400065
:1001F000000705830240000000C18081C112010098
:1002000002020000404F1B0892000101020001128F
:10021000010002000000404F1B0892000101020093
:1002200001537061726B46756E004C696C79506158
:10023000642055534200040309040000000000003C
:1002400000002A2B28000000000000000000000031
:10025000000000000000000000002C9EB4A0A1A23D
:10026000A434A6A7A5AE362D3738271E1F2021227D
:1002700023242526B333B62EB7B89F848586878876
:10028000898A8B8C8D8E8F90919293949596979866
:10029000999A9B9C9D2F3130A3AD35040506070824
:1002A000090A0B0C0D0E0F10111213141516171846
:1002B000191A1B1C1DAFB1B0B500090402000103DF
:1002C00000000009210101000122650007058403E7
:1002D00040000105010902A1010901A100850105F4
:1002E000091901290315002501950375018102955E
:1002F000017505810305010930093109381581258A
:100300007F750895038106C0C005010906A1018516
:1003100002050719E029E7150025017501950881F7
:100320000295017508810395067508150025650578
:1003300007190029658100C08D034619F71DB71FF5
:100340007A27930311241FBECFEFDAE0DEBFCDBFC3
:1003500011E0A0E0B1E0E2EDF9E502C005900D92F8
:10036000A839B107D9F727E0A8E9B1E001C01D928B
:10037000AC3AB207E1F713E0C2E4D3E004C022973D
:10038000FE010E94452AC833D107C9F70E94FB1F0E
:100390000C94DC2C0C940000AF92BF92CF92DF92B1
:1003A000EF92FF920F931F9326E040E855E260E042
:1003B00070E085EF96E00E94F91E40E855E260E0AB
:1003C00070E085EA96E00E94F11D89EA93E00E94C0
:1003D000E30F8AE394E00E949C1389E394E00E9477
:1003E000B1118BE394E00E94FE148CE394E00E9430
:1003F000631542E350E060E070E08DE394E00E941A
:10040000671581E195E00E94251681E1A82E85E01F
:10041000B82E9DE3C92E94E0D92E2CE3E22E24E0E1
:10042000F22E0BE314E029E334E04AE354E069EAF6
:1004300073E08AE892E00E941C0469E571E084E8B8
:1004400092E00E94802510928202109281021F91F8
:100450000F91FF90EF90DF90CF90BF90AF900895F5
:100460009F92AF92BF92CF92DF92EF92FF920F9343
:100470001F93CF93DF93CDB7DEB728970FB6F894CD
:10048000DEBF0FBECDBF982E5A0169011886CE017E
:1004900001960E9477259501AE01495F5F4FBE012D
:1004A0006F5F7F4F8AE892E00E946D048C01CE015D
:1004B00001960E94DC240115110509F0C8C0CE0187
:1004C00008967C01860195014F81692D8AE892E0AA
:1004D0000E94E104009709F0BBC098854F81491B39
:1004E000F60181818F3609F46BC038F5883209F442
:1004F00059C090F48A3009F449C08B3009F0A6C085
:100500009501F4E09F9F200D311D1124B6018AE86A
:1005100092E00E948B069AC0843609F44BC08E3656
:1005200009F471C08A3509F091C09501F4E09F9FEC
:10053000200D311D112400E077C0823709F459C025
:1005400080F4803709F446C0813709F07FC0850107
:10055000F4E09F9F000D111D1124242F43E050E073
:1005600042C0803A09F466C08E3B09F456C0883711
:1005700009F06CC09501F4E09F9F200D311D1124FE
:10058000B6018AE892E00E949A0960C0950184E071
:10059000989F200D311D1124B6018AE892E00E9437
:1005A000A20654C09501E4E09E9F200D311D112448
:1005B00000E047C0B6018AE892E00E94F90846C010
:1005C000850184E0989F000D111D1124242F41E026
:1005D00050E009C08501E4E09E9F000D111D11242B
:1005E000242F42E050E0B6018AE892E00E9413090D
:1005F0002DC0850184E0989F000D111D1124242F2A
:1006000044E050E0F0CF8501E4E09E9F000D111D15
:100610001124242F40E050E0E6CF950184E0989F1C
:10062000200D311D112401E0B6018AE892E00E94FC
:10063000D0070CC09501E4E09E9F200D311D1124D0
:1006400001E0B6018AE892E00E944A0701C0C801B1
:1006500028960FB6F894DEBF0FBECDBFDF91CF91C5
:100660001F910F91FF90EF90DF90CF90BF90AF90D0
:100670009F9008951F93CF93DF9300D000D000D0B8
:10068000CDB7DEB7182F609183026B3759F469E557
:1006900071E084E892E00E9480251092820210921C
:1006A000810213C06D3721F481E0809382020DC076
:1006B000809181028C3948F484E892E00E94C4253C
:1006C000909181029F5F909381028091820281309C
:1006D000D1F464E872E0CE0101960E94772528E902
:1006E00031E041EA51E0BE016F5F7F4F812F0E94F0
:1006F00030029093A00180939F01CE0101960E9449
:10070000DC241092820226960FB6F894DEBF0FBE4C
:10071000CDBFDF91CF911F91089569E571E084E825
:1007200092E00C944A2584E892E00C94DC2485EA5B
:1007300096E00E945E1D892B51F085EA96E00E94AA
:100740006E1D8093830281E00E943A03F0CF85EF13
:1007500096E00E94141E892B51F085EF96E00E94CE
:100760002F1E8093830282E00E943A03F0CF8AE832
:1007700092E00C94E10AFC01E35EFE4F11821082CC
:100780003F97118210823296118210823296118226
:10079000108232961182108232961182108220E0ED
:1007A00030E0FC01E20FF31FE251FF4F1082118293
:1007B000128213822C5F3F4F2032310591F7FC01EA
:1007C000E85EFE4F118210823296118210823296BC
:1007D00010829C01A5E04FEF5FEFBA01F901ED53E4
:1007E000FF4F408351836283738374971082118219
:1007F00012821382A1502C5F3F4FA111EFCFFC0159
:10080000E952FF4F1082359610823196108220E017
:1008100030E0FC01E20FF31FE252FF4F10822F5F26
:100820003F4F2C303105A9F7FC01E651FF4F1082F4
:1008300011821282138208954F925F926F927F927B
:100840008F929F92AF92BF92CF92DF92EF92FF92E0
:100850000F931F93CF93DF93EC014B013A012901D2
:100860008FEF8E8761E08DE00E94C51C998288829F
:100870007D826C825B824A821F830E83F986E886C2
:10088000DB86CA86BD86AC86F894E1E8F0E080811C
:100890008B608083EFE6F0E080818260808310923D
:1008A00085001092840088EE93E0909389008093F5
:1008B00088007894CE01DF91CF911F910F91FF9026
:1008C000EF90DF90CF90BF90AF909F908F907F90F0
:1008D0006F905F904F900C94BB037F928F929F928A
:1008E000AF92BF92CF92DF92EF92FF920F931F933E
:1008F000CF93DF93CDB7DEB72E970FB6F894DEBF58
:100900000FBECDBF6B015A0169E571E0CE010796BC
:100910002D873E870E944A256BE3C6010E94C425AD
:100920002D85022F3E85132FE12CF12C712CA70170
:100930006BE3C6010E94D7254C018FEF88169806FD
:1009400021F19401A701B601CE0101960E94F32581
:10095000BE016F5F7F4FCE0107960E946025CE01DA
:1009600001960E94DC247401EFEFEE1AFE0ACE011C
:1009700007960E943826F8016193719381939193B1
:100980008F017394F8E37F12D2CFF5017082CE010C
:1009900007960E94DC2480E090E02E960FB6F89433
:1009A000DEBF0FBECDBFDF91CF911F910F91FF90A2
:1009B000EF90DF90CF90BF90AF909F908F907F90FF
:1009C0000895EF92FF920F931F93CF93DF93E90166
:1009D000F801DC011E966C93442371F188819981A2
:1009E000AA81BB8181309105A105B10529F002974B
:1009F000A105B10559F020C04230F0F081E08083BC
:100A00008C81818382E0F701808313C04430A0F0A1
:100A100081E080838C81818388859985AA85BB85C7
:100A200082839383A483B5838C85868384E0D701F6
:100A30008C9380E090E002C086EF9FEFDF91CF9132
:100A40001F910F91FF90EF900895FF920F931F93C6
:100A5000CF93DF93062FC42FF22E132FFC01868530
:100A6000813099F56BE785EA96E00E944C204AE0D8
:100A700050E061E070E085EA96E00E941C216BE3A3
:100A800085EA96E00E944C204AE050E06C2F85EA0F
:100A900096E00E943121CF2DD12F10E0101789F060
:100AA0006BE385EA96E00E944C2049915991699147
:100AB00079912AE030E085EA96E00E94D2201F5F1B
:100AC000EDCF6DE785EA96E034C08230B9F56BE78B
:100AD00085EF96E00E944C204AE050E061E070E033
:100AE00085EF96E00E941C216BE385EF96E00E9463
:100AF0004C204AE050E06C2F85EF96E00E943121B7
:100B0000CF2DD12F10E0101789F06BE385EF96E021
:100B10000E944C2049915991699179912AE030E0E5
:100B200085EF96E00E94D2201F5FEDCF6DE785EF45
:100B300096E00E944C2080E090E002C08FEF9FEF93
:100B4000DF91CF911F910F91FF900895EF92FF9247
:100B50000F931F93CF93DF93EB01F42EE22EFC0152
:100B60008685813009F062C06BE785EA96E00E94D5
:100B70004C208881813071F1823009F0C3C04AE095
:100B800050E062E085EA96E00E9431216BE385EA5D
:100B900096E00E944C204AE050E06E2D85EA96E0F7
:100BA0000E9431216BE385EA96E00E944C204A8145
:100BB0005B816C817D812AE030E085EA96E00E94CD
:100BC000D2206BE385EA96E00E944C204AE050E098
:100BD0006E810FC04AE050E061E085EA96E00E9435
:100BE00031216BE385EA96E00E944C204AE050E018
:100BF0006E2D85EA96E00E943121E801E12CEF1488
:100C000089F06BE385EA96E00E944C204991599166
:100C1000699179912AE030E085EA96E00E94D2203D
:100C2000E394EDCF6DE785EA96E064C0823009F089
:100C300066C06BE785EF96E00E944C20888181308A
:100C400071F1823009F05EC04AE050E062E085EF69
:100C500096E00E9431216BE385EF96E00E944C20E4
:100C60004AE050E06E2D85EF96E00E9431216BE363
:100C700085EF96E00E944C204A815B816C817D81EA
:100C80002AE030E085EF96E00E94D2206BE385EF0A
:100C900096E00E944C204AE050E06E810FC04AE08E
:100CA00050E061E085EF96E00E9431216BE385EF33
:100CB00096E00E944C204AE050E06E2D85EF96E0D1
:100CC0000E943121E801E12CEF1489F06BE385EFFC
:100CD00096E00E944C2049915991699179912AE0BE
:100CE00030E085EF96E00E94D220E394EDCF6DE7EF
:100CF00085EF96E00E944C2080E090E005C08FEFE9
:100D00009FEF02C086EF9FEFDF91CF911F910F9170
:100D1000FF90EF900895413091F4F9018081918125
:100D2000A281B381892B8A2B8B2B11F061E001C04A
:100D300060E08DE00E94FE1C80E090E0089585EF69
:100D40009FEF08950F931F93CF93DF93FC01D90179
:100D5000413039F46D917C91808191810E94CB0F5B
:100D60008FC0423051F414964D915C9115976C915F
:100D7000808191810E94B60F83C0433069F414963C
:100D80004D915C91159718962C9118976C918081D4
:100D900091810E94B90F74C0443079F41C960C9173
:100DA0001C9718962C91189714964C9114976C9147
:100DB000808191810E94BB0F63C04031B9F480E013
:100DC00090E04D915D916D917D91EF01C80FD91F1C
:100DD000588B4F8702968032910599F7BF01615F6A
:100DE0007F4F808191810E945C104AC0403221F582
:100DF0008901EC0180E090E0D8014D915D916D9109
:100E00007D918D01588B4F879F01280F391FDC96EC
:100E10004C91D9019F964C93019622968031910571
:100E200059F7AF01415D5F4FBF01615F7F4F808127
:100E300091810E94751024C0403329F59C0180E007
:100E400090E0EF01C80FD91F4C914FAFE901C15B92
:100E5000DF4F14964C9114974883609618964C91E6
:100E60001897488301961C962F5F3F4F803191055C
:100E700041F7BF01615C7F4F808191810E94951095
:100E800080E090E002C085EF9FEFDF91CF911F914E
:100E90000F910895CF92DF92EF92FF920F931F93DD
:100EA000CF93DF93CDB7DEB72C970FB6F894DEBFA4
:100EB0000FBECDBF7C016B01011124C04C3008F086
:100EC0005EC0F901382F282F231B241740F42081FE
:100ED0003496DC01A252BF4F2C930196F4CF50E020
:100EE000F701E40FF51FE252FF4F10824F5F5F4F93
:100EF000B70162527F4F21E0F701848595850E94FA
:100F0000E8163AC04130D9F5F9014081518121E01C
:100F1000BE016F5F7F4F81E195E00E94231897FF2C
:100F200002C080E090E060E0262F30E0281739070B
:100F3000D4F4A901440F551F440F551F4E0D5F1DDA
:100F4000FA01E159FF4FA1E0B0E0AC0FBD1FA20FC5
:100F5000B31F0C9110E020E030E000831183228366
:100F600033836F5FE1CF870101591F4F20EA482F7C
:100F7000B601C7010E94A60580E090E002C085EF9F
:100F80009FEF2C960FB6F894DEBF0FBECDBFDF915A
:100F9000CF911F910F91FF90EF90DF90CF90089528
:100FA0002F923F924F925F926F927F928F929F9279
:100FB000AF92BF92CF92DF92EF92FF920F931F9367
:100FC000CF93DF93CDB7DEB72C970FB6F894DEBF83
:100FD0000FBECDBF9C878B870111AEC040FDEBC01B
:100FE0004695842E912C8901E12CF12C835E9E4F35
:100FF0006C018B859C85865E9E4F9A838983AB8529
:10100000BC85A25FBE4FBC83AB83EB85FC85E05FF4
:10101000FE4FFE83ED838B859C858E5E9E4F988769
:101020008F832B843C849CEE291A9EEF390A4B84D3
:101030005C84AAEE4A1AAEEF5A0A6B847C84B8EE3E
:101040006B1ABEEF7B0AEB85FC85E45EFE4FFA87E8
:10105000E987E814F9040CF0ABC0F80180819181B4
:10106000A281B381892B8A2B8B2B09F0A7C0A48086
:10107000B580B50180E090E00E94852823E333E34A
:1010800043E050E40E9458290E945928693E734069
:1010900020F4D601AD92BC9205C087EE91E0F60136
:1010A00091838083D6018D919C91BC0180E090E07A
:1010B0000E94852823E333E343E050E40E9458294B
:1010C0009B01AC0160E070E08AE794E40E94EC27A9
:1010D0000E945928E981FA817183608380E090E061
:1010E000EB85FC85E80FF91FE251FF4F108211825A
:1010F0001282138204968032910591F7AB81BC81F4
:101100001D921C92ED81FE8111821082AF81B88503
:101110001D921C92F10111821082D2011D921C922B
:10112000F30111821082A985BA851C92BFEFEB1AD8
:10113000FB0A085F1F4F8DCF642E712C8B859C8519
:10114000F90120E030E08C01035E1E4F26153705C3
:101150002CF5C190D190E190F190CD28CE28CF28E8
:1011600069F57C015FE6E50EF11CD7011D921D9229
:101170001D921C9213977C01B3E7EB0EF11CD80172
:101180008D909C90A12CB12CD7018D929D92AD9207
:10119000BC9213972F5F3F4F0896D8CF0B851C85C5
:1011A00001591F4F440F2EEB8B859C850E94A6058D
:1011B00080E090E005C085EF9FEF02C082EF9FEFD7
:1011C0002C960FB6F894DEBF0FBECDBFDF91CF9146
:1011D0001F910F91FF90EF90DF90CF90BF90AF9055
:1011E0009F908F907F906F905F904F903F902F9047
:1011F00008950F931F93FB018C0101591F4F4EE17E
:1012000050E060E070E0D8014D935D936D937C9366
:10121000139724E641E0BF010E94A60580E090E01C
:101220001F910F910895AF92BF92CF92DF92EF92EC
:10123000FF920F931F93CF93DF93EC015A01F801B4
:10124000223008F067C0453051050CF066C0440FED
:10125000551F440F551F213009F041C0C080D18077
:10126000E280F3808FEFC816D806E806F80649F446
:10127000C40FD51FCD53DF4FC882D982EA82FB82CB
:1012800046C01C141D041E041F044CF584E1C8163E
:10129000D104E104F10444F484E190E0A0E0B0E082
:1012A00080839183A283B3837E01E40EF51E6701E0
:1012B00083ECC80ED11C60817181828193810E9470
:1012C000872823E333E343E050E40E94EC270E94A5
:1012D0005428F60160837183828393830DC04C0F81
:1012E0005D1FFA01ED53FF4F80E09AECAAE9BBE3E2
:1012F00080839183A283B3837497108211821282B8
:101300001382CA0DDB1DC952DF4F81E0888380E064
:1013100090E005C085EF9FEF02C083EF9FEFDF9164
:10132000CF911F910F91FF90EF90DF90CF90BF90E2
:10133000AF900895EF92FF920F931F93CF93DF9397
:1013400000D0CDB7DEB77C01423008F05CC0413040
:10135000C1F5D9010D911D912D913C9101151105FA
:101360002105310571F10130110521053105F1F03B
:101370006CF40F3F1F4F2F4F3F4F09F047C0FC0148
:10138000E452FF4F10823196108214C002301105D2
:101390002105310591F00330110521053105B1F525
:1013A000FC01E452FF4F4083319603C0FC01E4523C
:1013B000FF4F408380E090E02BC0FC01E352FF4FE1
:1013C000F8CFF7018285938569837A830E948B1514
:1013D000F701E159FF4F69817A81882349F081E063
:1013E00090E0A0E0B0E080839183A283B38304C047
:1013F00010821182128213828F0128E741E0C70117
:101400000E94A605D7CF85EF9FEF02C084EF9FEF24
:101410000F900F90DF91CF911F910F91FF90EF9060
:101420000895CF93DF93EB0160E070E0FC018281CF
:1014300093810E94661220E030E04AE754E40E9463
:1014400058290E945428688379838A839B83DF917B
:10145000CF910895CF92DF92EF92FF920F931F9357
:10146000CF93DF93CDB7DEB72C970FB6F894DEBFDE
:101470000FBECDBF6B01BE016F5F7F4FFC0184814A
:1014800095810E940013CE0101967C0186016E01B8
:101490009DE0C90ED11CF7016191719181919191EB
:1014A0007F0120E030E04AE754E40E9458290E947E
:1014B0005428F80161937193819391938F01EC14F7
:1014C000FD0449F72C960FB6F894DEBF0FBECDBFD2
:1014D000DF91CF911F910F91FF90EF90DF90CF9010
:1014E00008950F931F93CF93DF93CDB7DEB72C975B
:1014F0000FB6F894DEBF0FBECDBF8B01BE016F5F8C
:101500007F4FFC01868197810E94651469817A81F1
:101510008B819C810E945428F801608371838283AF
:1015200093836D817E818F8198850E945428F80174
:10153000648375838683978369857A858B859C858B
:101540000E945428F80160877187828793872C96C0
:101550000FB6F894DEBF0FBECDBFDF91CF911F91C4
:101560000F910895CF93DF93EB01FC018085918566
:101570000E946415A0E0B0E088839983AA83BB83AE
:10158000DF91CF9108950F931F93CF93DF93EC01D9
:101590008B010E94110AB8016C5F7F4FCE010E943F
:1015A0002A0AB801605F7F4FCE010E94710AB8011C
:1015B000645E7F4FCE01DF91CF911F910F910C940C
:1015C000B20A2F923F924F925F926F927F928F92C8
:1015D0009F92AF92BF92CF92DF92EF92FF920F93C2
:1015E0001F93CF93DF93CDB7DEB76D970FB6F89407
:1015F000DEBF0FBECDBF9D8F8C8F3C0124EE621AE3
:101600002EEF720AD3018C91813009F05DC1EC8C10
:10161000FD8C1982870101591F4FF701EE50FF4FD2
:10162000FB83EA83C7018A509F4F9D838C83D70138
:10163000AD58BF4FBF83AE833896F987E8878F5781
:1016400091099B878A87A156BF4FBD87AC87749647
:10165000FF87EE8789579F4F998B888B5097BB8B5D
:10166000AA8B6701BAEFCB1ABEEFDB0A5701ECEE8B
:10167000AE1AEEEFBE0A4701F6EF8F1AFEEF9F0A91
:10168000F701ED53FF4F80819181A281B38118163C
:1016900019061A061B060CF00CC12981223009F428
:1016A00049C020F5213009F0DAC0B8018C8D9D8D3C
:1016B0000E94110A2C8D3D8D22513F4FF9018081EE
:1016C0009181A281B381F80140815181628173814E
:1016D000840F951FA61FB71FF90180839183A283F2
:1016E000B383EC8DFD8DE05FFE4FB3C029812330C5
:1016F00009F469C0243009F0B2C0B8018C8D9D8D09
:101700000E94B20AF40180819181A281B381F80123
:101710004081518162817381840F951FA61FB71F7D
:10172000F40180839183A283B383EC8DFD8DEA5E07
:10173000FE4F8FC0B8018C8D9D8D0E942A0AEA81D0
:10174000FB8180819181A281B381F8014081518127
:1017500062817381840F951FA61FB71FEA81FB81E9
:1017600080839183A283B383EC81FD818081918109
:10177000A281B381EE81FF814081518162817381B9
:10178000840F951FA61FB71FEC81FD818083918375
:10179000A283B383E885F98580819181A281B38199
:1017A000EA85FB854081518162817381840F951F99
:1017B000A61FB71FE885F98580839183A283B38331
:1017C000AC85BD8570C0B8018C8D9D8D0E94710A5D
:1017D000E889F98980819181A281B381F8014081F2
:1017E000518162817381840F951FA61FB71FE889FD
:1017F000F98980839183A283B383EA89FB898081FD
:101800009181A281B381EE81FF814081518162810A
:101810007381840F951FA61FB71FEA89FB898083F8
:101820009183A283B383F60180819181A281B381E8
:10183000EA85FB854081518162817381840F951F08
:10184000A61FB71FF60180839183A283B383D501BE
:101850002AC0808191810196918380832AC0B8013A
:101860008C8D9D8D0E94C30A8C8D9D8D28E0FC017E
:10187000E251FF4FDC01A159BF4F4081518162818C
:1018800073812D903D904D905C90420D531D641DD1
:10189000751D408351836283738321500496211107
:1018A000E6CFAE85BF858D919C91119701968D9362
:1018B0009C9329812F5F298384E0E80EF11C253059
:1018C00009F0DECED3011C92EC8DFD8DFF83EE83FB
:1018D0003F011982CF01835E9E4F9D838C838F01D0
:1018E00001591F4FDF01A558BF4FB987A887212C89
:1018F000312C21012394EE5EFE4FFD87EC878B9700
:101900009F878E871897BB83AA837C97F98BE88B78
:101910008B5791099B8B8A8BA957BF4FBD8BAC8B83
:10192000E756F109FF8BEE8B89569F4F998F888F71
:10193000F301ED53FF4F80819181A281B38118168D
:1019400019061A061B0654F474974081518162816E
:101950007381481759076A077B0744F4EE81FF81BA
:10196000E952FF4F8081813009F0E6C1F301E15572
:10197000FF4F10821182128213829981923009F4F2
:1019800051C018F4913049F07BC1A981A33009F40A
:10199000B5C0A43009F42DC173C1EC81FD818081F3
:1019A0009181892B61F0EC8CFD8CF0EFEF1AFEEF4A
:1019B000FF0AD7018D909C908114910461F4B801C5
:1019C0008C8D9D8D0E94110AEA81FB8120823182DB
:1019D0004282538224C0A12CB12CCC8CDD8CFEEE33
:1019E000CF0ED11CD6016D917D918D919C91A50159
:1019F00094010E94242AF801208331834283538377
:101A0000AA81BB818D929D92AD92BC921397F601F3
:101A10001082118212821382D7011D921C929801AA
:101A20004FE62CC1EC81FD8180819181892B39F0B9
:101A3000AC85BD85CD90DC90C114D10461F4B801B2
:101A40008C8D9D8D0E942A0AE885F985208231823D
:101A50004282538250C0E12CF12CAE85BF856D913E
:101A60007D918D919C91A70196010E94242AF801F5
:101A70002083318342835383AE85BF851D921D929F
:101A80001D921C921397E889F98960817181828186
:101A90009381A70196010E94242AAA81BB812D93DC
:101AA0003D934D935C931397E889F98910821182D5
:101AB00012821382AC89BD896D917D918D919C912B
:101AC000A70196010E94242AEA89FB892083318399
:101AD00042835383AC89BD891D921D921D921C9235
:101AE0001397E885F985C082D182E282F382AC85C2
:101AF000BD851D921C92980140E779C0EC81FD8163
:101B000080819181892B61F0EC8CFD8CFCEEEF1AC9
:101B1000FEEFFF0AD7018D909C908114910461F42F
:101B2000B8018C8D9D8D0E94710AE885F98520820F
:101B300031824282538259C0A12CB12CCC8CDD8CD5
:101B4000FEEFCF0ED11CD6016D917D918D919C91B0
:101B5000A50194010E94242AF80120833183428345
:101B60005383D6011D921D921D921C921397CC8C0B
:101B7000DD8CBEEFCB1ADB0AF601608171818281B8
:101B80009381A50194010E94242AAA81BB812D93EF
:101B90003D934D935C931397F6011082118212824C
:101BA0001382CC8CDD8CFAEFCF1AFEEFDF0AD60160
:101BB0006D917D918D919C91A50194010E94242AA3
:101BC000EA89FB892083318342835383D6011D92A6
:101BD0001D921D921C921397E885F985808291824F
:101BE000A282B382D7011D921C92980141E764E062
:101BF0009AC0EC81FD8180819181892B61F0EC8C10
:101C0000FD8CFAEEEF1AFEEFFF0AD7018D909C9043
:101C10008114910461F4B8018C8D9D8D0E94B20AEB
:101C2000EA81FB81208231824282538225C0A12C2D
:101C3000B12CCC8CDD8CF6EFCF1AFEEFDF0AD6018B
:101C40006D917D918D919C91A50194010E94242A12
:101C5000F8012083318342835383AA81BB818D9213
:101C60009D92AD92BC921397F6011082118212825E
:101C70001382D7011D921C92980142E762E053C083
:101C8000EC81FD8180819181892B31F0A88DB98D06
:101C90008D919C91009761F4B8018C8D9D8D0E946F
:101CA000C30AEE89FF89208231824282538238C082
:101CB000EC8CFD8CF8E0FA874C01A12CB12C67016B
:101CC0002EEEC20ED11CC70181599F4F9B8F8A8F68
:101CD000D6016D917D918D919C91A50194010E94F9
:101CE000242AEA8DFB8D2083318342835383D601DE
:101CF0001D921D921D921C921397BA85B150BA87FE
:101D0000E4E0EE0EF11CB111DACFAE89BF898D92FD
:101D10009D92AD92BC921397E88DF98D118210823D
:101D200098014EE669E08AE892E00E942505EE817E
:101D3000FF81E952FF4F1082F981FF5FF98324E0B0
:101D4000620E711C8E819F8101969F838E83F53078
:101D500009F0EECDEC8DFD8DE452FF4F808188239C
:101D600099F0AC8DBD8D1A968D919C911B970E9418
:101D70008E15882349F02C8D3D8D21593F4F81E0F0
:101D800090E0A0E0B0E017C0EC8DFD8DE352FF4F76
:101D90008081882399F1EC8DFD8D828593850E9449
:101DA0009215882359F12C8D3D8D21593F4F82E0AA
:101DB00090E0A0E0B0E0F90180839183A283B38337
:101DC00048E761E08C8D9D8D6D960FB6F894DEBF6F
:101DD0000FBECDBFDF91CF911F910F91FF90EF907C
:101DE000DF90CF90BF90AF909F908F907F906F903B
:101DF0005F904F903F902F900C9425056D960FB6F5
:101E0000F894DEBF0FBECDBFDF91CF911F910F9130
:101E1000FF90EF90DF90CF90BF90AF909F908F900A
:101E20007F906F905F904F903F902F9008951F92FA
:101E30000F920FB60F9211242F933F938F939F937E
:101E4000AF93BF93EF93FF938091740390917503C9
:101E5000A0917603B09177030196A11DB11D8093E7
:101E6000740390937503A0937603B0937703E9E32B
:101E7000F3E080819181A281B3810196A11DB11D02
:101E800081939193A193B19383E0ED34F80789F79F
:101E90008091A7039091A803892BB9F08091A203A8
:101EA0009091A30301969093A3038093A2032091A2
:101EB000A4033091A5038217930738F081E0809343
:101EC000A6031092A3031092A203FF91EF91BF917A
:101ED000AF919F918F913F912F910F900FBE0F90D7
:101EE0001F9018958EBD00000DB407FEFDCF8EB576
:101EF00008956F702295207F48305105B0F5FA01A2
:101F0000EA5AFF4F70E00C94432AFC01E60FF71FDA
:101F1000208329C0FC01E60FF71F108209C0FC01D5
:101F2000E60FF71F10820AC0FC01E60FF71F20839F
:101F3000208B1AC0FC01E60FF71F2083108A0DC00A
:101F4000FC01E60FF71F108207C0213B08F020EBD1
:101F5000FC01E60FF71F2083208B20A30895FC01CE
:101F6000E60FF71F1082108A10A208952FE00C943C
:101F7000790F0C94790F0F936F70FC01E60FF11D30
:101F80004295407F40832295207F208B0295007FE1
:101F900000A30F910895FF920F931F93CF93DF93A8
:101FA000EC018B01F12C2FE0A8016F2DCE010E94D6
:101FB000790FF39480E1F812F6CFDF91CF911F9162
:101FC0000F91FF900895CF93DF93EC01AC0120E0D7
:101FD00030E0FE01E20FF31F10A2108ADA011D9219
:101FE000AD01CF01805B9F4FDC011C924097DC016B
:101FF0001C9210AA805C9F4FDC011C924097DC0170
:102000001C92E05AFF4F10822F5F3F4F2F30310557
:1020100001F761E08BE00E94C51C61E08AE00E944C
:10202000C51C61E089E00E94C51C61E08BE00E9454
:10203000FE1C61E08AE00E94FE1C61E089E00E94D3
:10204000FE1C0E949B1161E08CE00E94C51C60E0B8
:102050008CE00E94FE1C67E070E0CE010E94CB0F76
:10206000F894109272001092BF001092BF0010926C
:10207000BE001092C00088E08093C1001092C200A0
:102080001092C3001092C4008FE48093CF0080911F
:10209000720080648093720060E08BE00E94FE1CFE
:1020A00060E08AE00E94FE1C60E089E00E94FE1C65
:1020B0007894DF91CF910895FF920F931F93CF9360
:1020C000DF938C01EB01F12C499159912FE06F2D99
:1020D000C8010E94790FF39480E1F812F5CFDF91E7
:1020E000CF911F910F91FF900895DF92EF92FF9291
:1020F0000F931F93CF93DF937C018A01EB01D12CC7
:10210000F80121918F01499159916D2DC7010E94CC
:10211000790FD394F0E1DF12F3CFDF91CF911F91CC
:102120000F91FF90EF90DF900895EF92FF920F9341
:102130001F93CF93DF93DB0120E030E08B01005F42
:102140001F4FEB01A096AD01461B570BED90FA0116
:10215000E00FF11FF080F294E0EFFE22FA01EC0FA5
:10216000FD1F40814295407FFC01E20FF31FE29486
:1021700050EFE522E082F08A40A32F5F3F4F2031ED
:10218000310509F7DF91CF911F910F91FF90EF90EB
:102190000895CF93AC012FE030E080E061E070E083
:1021A000F901E40FF51F9081992349F0F90138975F
:1021B000DB0102C0AA0FBB1FEA95E2F78A0F21508C
:1021C00031092730310561F727E030E0C0E061E0F8
:1021D00070E0FA01E20FF31F9081992339F0FB01BF
:1021E000022E01C0EE0F0A94EAF7CE0F21503109FA
:1021F00080F70E94720F8C2FCF910C94720F1F9258
:102200000F920FB60F921124AF92BF92DF92EF920E
:10221000FF920F931F932F933F934F935F936F936F
:102220007F938F939F93AF93BF93CF93DF93EF935E
:10223000FF93109272001092BF001092BF00109294
:10224000BE00789429EA33E049EB53E069EC73E08F
:1022500080E090E0FC01E755FC4FE0A8EF01C05C96
:10226000DF4FF8805F01A0E5AA0EB11CD5010C91EB
:10227000D0A8D9011D919D011D0D10ABD880DA01A8
:102280001D91AD011D0D1883D501DC91DB01CD91B0
:10229000BD01CD0FD501CC93A0A9C1E0AE1508F0CA
:1022A000C0E0DF01A05ABF4FCC939097AC91C1E042
:1022B000AF1508F0C0E0DF01A059BF4FCC93909755
:1022C000BC91A1E0B01708F0A0E0E058FF4FA08358
:1022D00001968031910509F0BDCF5E9889E294E0C6
:1022E0000E94C91089E194E00E94C91089E094E03D
:1022F0000E94C9105E9A5E988091720080648093FB
:102300007200FF91EF91DF91CF91BF91AF919F91BB
:102310008F917F916F915F914F913F912F911F917D
:102320000F91FF90EF90DF90BF90AF900F900FBE96
:102330000F901F90189561E081E10E94FE1C61E002
:1023400081E10E94C51C8CB580618CBD8CB5806418
:102350008CBD61E08FE00E94C51C61E080E10C94BF
:10236000C51C08952F923F924F925F926F927F9279
:102370008F929F92AF92BF92CF92DF92EF92FF9295
:102380000F931F93CF93DF93CDB7DEB72C970FB684
:10239000F894DEBF0FBECDBF1B0129833A834B8368
:1023A0005C83ED82FE820F83188787E10E94571CB1
:1023B000BC01882777FD8095982F0E9487282B01E4
:1023C0003C019B01AC0169A17AA18BA19CA10E9457
:1023D000582969877A878B879C87A301920160E0DF
:1023E00070E080E894E40E9487279B01AC01698536
:1023F0007A858B859C850E94EC27A60195010E9419
:10240000EC270E9418296B017C012D813E814F81B0
:10241000588560E070E080E89FE30E94EC274B0164
:102420005C0129813A814B815C8160E070E080E849
:102430009FE30E94EC27A70196010E9458299B0167
:10244000AC01C501B4010E9488279B01AC0160E08A
:1024500070E080E89FE30E94EC2721143104B9F07A
:1024600022E022163104C9F423E333E948E853E4B7
:102470000E94872726E636E646EE5FE30E9458294B
:1024800020E030E040E052E40E94882706C023E3C9
:1024900033E948E853E40E9487272C960FB6F89456
:1024A000DEBF0FBECDBFDF91CF911F910F91FF9087
:1024B000EF90DF90CF90BF90AF909F908F907F90E4
:1024C0006F905F904F903F902F900895AF92BF9282
:1024D000CF92DF92EF92FF920F931F9327E42F93F7
:1024E00023EC2F9320E52F931F92A12C20E5B22EF1
:1024F00023ECC22E27E4D22E13E3E12E13E1F12EBA
:1025000005E913E420E030ED44E855E40E94B211FF
:102510000F900F900F900F901F910F91FF90EF90E1
:10252000DF90CF90BF90AF900895DC01ED91FC91CA
:102530000190F081E02D0994EF92FF920F931F9389
:10254000CF93DF931F92CDB7DEB78B017A016DE198
:1025500070E08CED95E029830E942E19B8018CED76
:1025600095E00E9495122981422F50E0B7018CED31
:1025700095E00E949E188CED95E00F90DF91CF9131
:102580001F910F91FF90EF900C944319EF92FF92DF
:102590000F931F93CF93DF93EB018A01E22E6DE13E
:1025A00070E08CED95E00E942E19BE018CED95E057
:1025B0000E94951260E08CED95E00E9430194E2D3E
:1025C0006DE18CED95E00E942119E801F12C8CED74
:1025D00095E00E947318892B61F0CE01801B910B4E
:1025E0008E159F0534F48CED95E00E947B1889933D
:1025F000EECFDF91CF911F910F91FF90EF90089553
:10260000CF92DF92EF92FF920F931F93CF93DF93BE
:1026100000D000D000D0CDB7DEB78C016B0121E037
:10262000AE014F5F5F4F60E070E00E94C61226E08F
:10263000AE014F5F5F4F61E070E0C8010E94C612BB
:102640008E010E5F1F4F76016E0188E0C80ED11C0F
:10265000F8013197608170E0762F6627F80180815C
:10266000680F711D882777FD8095982F0E94872815
:1026700020E030E040E858E30E945829F7016193D8
:102680007193819391937F010E5F1F4F0C151D0570
:10269000F9F626960FB6F894DEBF0FBECDBFDF91D8
:1026A000CF911F910F91FF90EF90DF90CF90089501
:1026B0000F931F93CF93DF931F92CDB7DEB78C019B
:1026C00021E0AE014F5F5F4F6AE270E00E94C612E8
:1026D00089818160898321E0AE014F5F5F4F6AE2AB
:1026E00070E0C8010E949C120F90DF91CF911F9162
:1026F0000F9108950F931F93CF93DF931F92CDB740
:10270000DEB78C0121E0AE014F5F5F4F6AE270E0FF
:102710000E94C61289818E7F898321E0AE014F5FBE
:102720005F4F6AE270E0C8010E949C120F90DF9137
:10273000CF911F910F9108950F931F93CF93DF9324
:102740001F92CDB7DEB78C018CED95E00E940A197F
:102750006DE170E08CED95E00E942E198CED95E016
:102760000E944319882319F061E171E00EC021E055
:10277000AE014F5F5F4F6DE070E0C8010E94C6126E
:1027800089818A3539F06DE271E085EA96E00E9430
:10279000672031C0C8010E947A1321E0AE014F5F6B
:1027A0005F4F6EE070E0C8010E94C61289818C7F85
:1027B000898321E0AE014F5F5F4F6EE070E0C8019A
:1027C0000E949C1221E0AE014F5F5F4F6AE270E011
:1027D000C8010E94C6128981877C8062898321E0BA
:1027E000AE014F5F5F4F6AE270E0C8010E949C1229
:1027F000C8010E9458130F90DF91CF911F910F9144
:102800000895EF92FF920F931F93CF93DF931F9240
:10281000CDB7DEB78B017A016EE070E08CED95E00C
:1028200029830E942E19B8018CED95E00E94951223
:102830002981422F50E0B7018CED95E00E949E184F
:102840008CED95E00F90DF91CF911F910F91FF904C
:10285000EF900C944319EF92FF920F931F93CF9335
:10286000DF93EB018A01E22E6EE070E08CED95E0E3
:102870000E942E19BE018CED95E00E94951260E039
:102880008CED95E00E9430194E2D6EE08CED95E0B8
:102890000E942119E801F12C8CED95E00E9473183B
:1028A000892B61F0CE01801B910B8E159F0534F4AE
:1028B0008CED95E00E947B188993EECFDF91CF914C
:1028C0001F910F91FF90EF900895CF92DF92EF92BA
:1028D000FF920F931F93CF93DF9300D000D000D0CF
:1028E000CDB7DEB78C016B0121E0AE014F5F5F4FCA
:1028F00060E070E00E942B14898180FF2CC026E0EC
:10290000AE014F5F5F4F61E070E0C8010E942B1481
:102910008E010E5F1F4F76016E0188E0C80ED11C3C
:10292000F8013197608170E0762F6627F801808189
:10293000680F711D882777FD8095982F0E94872842
:10294000F70161937193819391937F010E5F1F4F04
:102950000C151D0529F726960FB6F894DEBF0FBE9D
:10296000CDBFDF91CF911F910F91FF90EF90DF903E
:10297000CF9008950F931F93CF93DF931F92CDB7FE
:10298000DEB78C0121E0AE014F5F5F4F60E170E088
:102990000E942B1489818160898321E0AE014F5F01
:1029A0005F4F60E170E0C8010E9401140F90DF9159
:1029B000CF911F910F9108950F931F93CF93DF93A2
:1029C0001F92CDB7DEB78C0121E0AE014F5F5F4FA4
:1029D00060E170E00E942B1489818E7F898321E061
:1029E000AE014F5F5F4F60E170E0C8010E940114CB
:1029F0000F90DF91CF911F910F9108950F931F9327
:102A0000CF93DF931F92CDB7DEB78C018CED95E0AD
:102A10000E940A196EE070E08CED95E00E942E197C
:102A20008CED95E00E944319882319F061E171E073
:102A30000EC021E0AE014F5F5F4F67E070E0C8015C
:102A40000E942B148981843C39F063E471E085EAAB
:102A500096E00E94672031C021E0AE014F5F5F4FDA
:102A600061E170E0C8010E942B148981806A89832A
:102A700021E0AE014F5F5F4F61E170E0C8010E944D
:102A80000114C8010E94DC1421E0AE014F5F5F4FCA
:102A900060E170E0C8010E942B1489818770886111
:102AA000898321E0AE014F5F5F4F60E170E0C801B4
:102AB0000E940114C8010E94BA140F90DF91CF91B7
:102AC0001F910F910895089586E10C94571CCF93A0
:102AD000DF93EC01188219821A821B821C8281E02A
:102AE0008D831E821F82488759876A877B8760E0B3
:102AF00087E00E94C51CF894EAE6F0E080818F7CB4
:102B00008083808180628083EE9A78941E821F8207
:102B1000DF91CF910895FC0184810895FC018681A5
:102B200016820895FC018781178208951F920F92E3
:102B30000FB60F9211240F931F932F933F934F9330
:102B40005F936F937F938F939F93AF93BF93EF9315
:102B5000FF9380914204882351F10E949F1B0091B2
:102B60003D0410913E0420913F0430914004601BCD
:102B7000710B820B930B0091450410914604209138
:102B8000470430914804061717072807390728F427
:102B900081E0809341048093430480914104882321
:102BA000B9F11092420480916A0080632FC00E94A4
:102BB0009F1B00913D0410913E0420913F043091F1
:102BC0004004601B710B820B930B00914504109124
:102BD0004604209147043091480406171707280738
:102BE000390728F41092410481E0809344048091D5
:102BF000410481110DC081E08093420480916A00FC
:102C00008F7C80936A0080916A00806280936A0062
:102C10000E949F1B60933D0470933E0480933F0489
:102C200090934004FF91EF91BF91AF919F918F914D
:102C30007F916F915F914F913F912F911F910F91D4
:102C40000F900FBE0F901F901895CF93DF93EC015C
:102C500061E084E00E94C51C61E086E00E94C51C22
:102C600060E088E00E94C51C60E086E00E94FE1CD7
:102C700061E084E00E94FE1C82E088831982C653D2
:102C8000DF4F1882F894E1E7F0E08081807F808355
:102C90001092900088E0809391008FEF80939900CC
:102CA0008093980010929500109294008081846027
:102CB0008083E8E6F0E080818160808380E180931A
:102CC0006B00789460E084E0DF91CF910C94FE1C5F
:102CD000CF93DF93EB0161E086E00E94FE1CCE0102
:102CE0000A970E94F61B60E086E00E94FE1C81E0CD
:102CF00090E0DF91CF910C94F61BFF920F931F93FE
:102D0000CF93DF93EC018C0106531F4FF801F08045
:102D100088818330E9F381E0F8018083611104C088
:102D20008FE492E00E94F61B6FE472E0CE010E94F5
:102D30006816F801F082DF91CF911F910F91FF90FB
:102D40000895AF92BF92CF92DF92EF92FF920F93CE
:102D50001F93CF93DF93EC01A62EC42E8C01065354
:102D60001F4FF801B08088818330E9F381E0F801DA
:102D70008083CC2021F061E0CE010E947D1688E0A6
:102D8000E82EF12CDD24D39461E09D2D9A2109F4E5
:102D900060E0CE010E947D16DD0CF1E0EF1AF10833
:102DA00099F7CC2041F061E0CE010E947D1680E1D0
:102DB00097E20E94F61BF801B082DF91CF911F913C
:102DC0000F91FF90EF90DF90CF90BF90AF9008955C
:102DD0006F927F929F92AF92BF92CF92DF92EF92CB
:102DE000FF920F931F93CF93DF931F92CDB7DEB760
:102DF0008C01962E6A01B22E7C018AECE80EF11C41
:102E0000F701A080F80180818330E1F381E0F701D0
:102E10008083BB2031F061E0C80179830E947D1678
:102E20007981692C772EC60CD71C6C147D0441F077
:102E3000F30161913F0140E0C8010E94A116F5CF66
:102E4000BB2041F061E0C8010E947D1680E197E25D
:102E50000E94F61BF701A0820F90DF91CF911F9186
:102E60000F91FF90EF90DF90CF90BF90AF909F9029
:102E70007F906F9008951F920F920FB60F921124BA
:102E80002F933F934F935F936F937F938F939F9372
:102E9000AF93BF93EF93FF938091DB0581114AC0FD
:102EA00080911205843618F084E08093110580919A
:102EB00011058130C8F18330F0F08330A9F580919D
:102EC0009100887F809391002091940080919500DB
:102ED000E091120591E09E0F90931205F0E090E0D2
:102EE000982F8827820F911DEE0FFF1FED5EFA4F7E
:102EF0009183808310C080919100887F809391009E
:102F00001092120583E08093110583E1809399006C
:102F100087E8809398001092950010929400809119
:102F2000910082608093910082E090E00E94F61B05
:102F30008FEF8BBBFF91EF91BF91AF919F918F91DD
:102F40007F916F915F914F913F912F910F900FBEA5
:102F50000F901F9018951F920F920FB60F92112489
:102F60008F9380919100887F8093910080911105CB
:102F7000813021F0833029F484E001C085E0809322
:102F800011058F910F900FBE0F901F901895CF9342
:102F9000DF93FC0180818230C1F581E0808341159F
:102FA0005105A9F080919100887F80939100CA011A
:102FB000019790939900415040939800109295008A
:102FC00010929400809191008260809391008081A2
:102FD000843041F08530D9F7118282E080838FEF11
:102FE0009FEF2EC0DB0180E090E0218130E082176E
:102FF00093070CF50196EC01CC0FDD1FCE0FDF1F00
:10300000288139812D933D93F0CF80818430E9F779
:10301000DB0180E090E0218130E0821793075CF4CF
:103020000196EC01CC0FDD1FCE0FDF1F2881398107
:103030002D933D93F0CF8181118292E0908390E0B7
:10304000DF91CF910895EF92FF920F931F93CF934B
:10305000DF931F92CDB7DEB77B0169E474E029836B
:103060000E94C717298197FD36C021110197E9E415
:10307000F4E020E030E010E000E041E050E028170C
:103080003907ECF4619171916C3D754050F4B901D0
:1030900067707727DA0102C0AA0FBB1F6A95E2F7B3
:1030A0000A2B2F5F3F4FB90167707727672B39F7DE
:1030B000D701A10FB11D0C931F5F00E0E0CF212FBE
:1030C00087709927892B29F01F5FF701E20FF11D07
:1030D0000083812F90E00F90DF91CF911F910F918E
:1030E000FF90EF90089580910C0690E020910D06DE
:1030F000821B9109089520910D0680910C062817D6
:1031000050F4E22FF0E0E25FF94F808190E02F5F12
:1031100020930D0608958FEF9FEF0895E0910D061F
:1031200080910C06E81730F4F0E0E25FF94F8081FF
:1031300090E008958FEF9FEF08950895CF92DF926A
:10314000EF92FF920F931F93CF93DF937C01CB01FC
:103150008A012091E805222389F0EB016B01C40E5E
:10316000D51ECC15DD0569F06991D701ED91FC9173
:103170000190F081E02DC7010995F3CF642F0E94E3
:10318000FF19C801DF91CF911F910F91FF90EF9030
:10319000DF90CF900895CF93DF931F92CDB7DEB726
:1031A00069832091E8052223D1F02091E90520329E
:1031B00040F021E030E0FC013383228380E090E0A6
:1031C00015C08091EA05E82FF0E0E551FA4F9981AA
:1031D00090838F5F8093EA058093E90505C061E0E5
:1031E000CE0101960E94FF1981E090E00F90DF91DF
:1031F000CF910895FC011382128248EE53E060E003
:1032000070E044835583668377838EE591E09183F4
:103210008083089510920D0610920C061092EA0514
:103220001092E9050C944A19862F413208F040E2C9
:103230006EE076E00E94681910920D0680930C06ED
:10324000089521E00C94141981E08093E8056093BF
:103250000B061092EA051092E90508950C942419C2
:103260000F93062F21E04091E9056BEE75E0809108
:103270000B060E94AC191092EA051092E905109213
:10328000E8050F91089561E00C9430198CED95E0FC
:103290000C94FA1810929B0681E080939906109284
:1032A000980661E082E00E94FE1C61E083E00E94DB
:1032B000FE1CE9EBF0E080818E7F808380818D7F32
:1032C000808380E28093B80085E48093BC000895F9
:1032D000413208F03FC090919B069111FCCF91E0E4
:1032E00090939B06209399062FEF20932E06109221
:1032F0007306240F2093720690939A0690919A0673
:10330000880F892B80939A0680919806813041F42A
:103310001092980680919A068093BB0085EC01C0BC
:1033200085EE8093BC0080919B068130E1F3809113
:103330007306841710F44091730624E736E0FB010E
:10334000D9018A2F821B841718F48D918193F9CFAC
:10335000842F089580E008950F93413208F046C00D
:1033600090919B069111FCCF92E090939B06009365
:1033700099069FEF90932E06109273064093720663
:10338000FB0164E776E0DB019A2F961B941718F493
:1033900091919D93F9CF10929A0690919A06880F79
:1033A000892B80939A0680919806813041F410927F
:1033B000980680919A068093BB0085EC01C085EE4B
:1033C0008093BC00222321F080919B068230E1F3A0
:1033D00080912E068F3F61F080912E06803251F051
:1033E00080912E06803341F483E007C081E005C060
:1033F00080E003C082E001C084E00F910895613253
:1034000098F420919B06243089F460935006FC01C7
:1034100082E596E0DC012A2F281B261718F421915B
:103420002D93F9CF80E0089581E0089582E008951A
:1034300085ED8093BC008091BC0084FDFCCF109290
:103440009B06089585EC8093BC0010929B0608951E
:103450001F920F920FB60F9211242F933F934F9309
:103460005F936F937F938F939F93AF93BF93EF93EC
:10347000FF938091B900887F803609F49CC068F57D
:10348000883209F45BC090F4803109F454C038F4F8
:10349000882309F4F5C0883009F44DC0F5C088319F
:1034A00009F44CC0803209F45DC0EEC0803409F4E8
:1034B00068C048F4803309F455C0883309F0E4C08B
:1034C00080932E06A8C0803509F44FC0883509F4D2
:1034D0005DC0883409F0D8C0D5C0883909F4C6C0A9
:1034E000A8F4883709F467C038F4883609F463C053
:1034F000803709F460C0C8C0883809F4B7C0803983
:1035000009F45FC0803809F0BFC05BC0803B09F49C
:1035100085C038F4803A09F466C0883A09F47EC060
:10352000B3C0803C09F4A6C0883C09F4A3C0883B22
:1035300009F489C0A9C080919A0610C090917306C1
:1035400080917206981770F5E091730681E08E0FF6
:1035500080937306F0E0EC58F94F80818093BB00B4
:1035600085EC85C080932E068DC0E091730681E0C6
:103570008E0F809373068091BB00F0E0EC58F94FFA
:10358000808390917306809172066DC0E0917306FE
:1035900081E08E0F809373068091BB00F0E0EC58C1
:1035A000F94F80838091990681116CC081E08093EE
:1035B000980684EA60C083E080939B0610922F06F1
:1035C000CFCF80912F06803208F050C0E0912F06B7
:1035D00081E08E0F80932F068091BB00F0E0E05DCC
:1035E000F94F8083BDCF80912F06803230F4E09177
:1035F0002F06F0E0E05DF94F10820E94181A6091EA
:103600002F0670E0E0919406F091950680E396E035
:10361000099510922F060E94221A36C084E08093EA
:103620009B061092510610925006E0919606F0917A
:103630009706099580915006811105C081E080931D
:10364000500610925206E091510681E08E0F809351
:103650005106F0E0EE5AF94F80818093BB009091C3
:10366000510680915006981708F47ACF85E8809328
:10367000BC000AC085EC8093BC0010929B0604C07D
:1036800010922E060E94181AFF91EF91BF91AF91F0
:103690009F918F917F916F915F914F913F912F916A
:1036A0000F900FBE0F901F9018951F920F920FB69C
:1036B0000F9211242F933F938F939F93AF93BF93B8
:1036C00080919D0690919E06A0919F06B091A006C4
:1036D00030919C0626E0230F2D3720F40296A11D81
:1036E000B11D05C029E8230F0396A11DB11D20932C
:1036F0009C0680939D0690939E06A0939F06B09390
:10370000A0068091A1069091A206A091A306B09177
:10371000A4060196A11DB11D8093A1069093A20657
:10372000A093A306B093A406BF91AF919F918F91F0
:103730003F912F910F900FBE0F901F9018952FB7AC
:10374000F89460919D0670919E0680919F069091DD
:10375000A0062FBF08953FB7F8948091A1069091DD
:10376000A206A091A306B091A40626B5A89B05C009
:103770002F3F19F00196A11DB11D3FBF6627782F7D
:10378000892F9A2F620F711D811D911D43E0660FD5
:10379000771F881F991F4A95D1F70895CF92DF921E
:1037A000EF92FF92CF93DF936B017C010E94AB1BE2
:1037B000EB01C114D104E104F10489F00E94432615
:1037C0000E94AB1B6C1B7D0B683E734090F381E045
:1037D000C81AD108E108F108C851DC4FEACFDF91DF
:1037E000CF91FF90EF90DF90CF90089581309105B9
:1037F00039F0029729F0880F991F01970197F1F787
:103800000895789484B5826084BD84B5816084BD58
:1038100085B5826085BD85B5816085BDEEE6F0E049
:10382000808181608083E1E8F0E0108280818260A5
:103830008083808181608083E0E8F0E08081816026
:103840008083E1E9F0E08081826080838081816013
:103850008083E0E9F0E0808181608083E1ECF0E04A
:1038600080818460808380818260808380818160A8
:103870008083E3ECF0E0808181608083E0ECF0E025
:10388000808182608083E2ECF0E0808181608083CF
:10389000EAE7F0E0808184608083808182608083B9
:1038A00080818160808380818068808308958231F7
:1038B00008F08251E82FF0E0EC5CFE4FE49180913B
:1038C0007B00E3FB222720F930E095E0220F331F35
:1038D0009A95E1F78F7D822B80937B00E770809132
:1038E000060120E4829FC0011124E82BE0937C00B4
:1038F00080917A00806480937A0080917A0086FDBE
:10390000FCCF809178002091790090E0922B08956F
:1039100090E0FC013197EF30F105B0F5E25AFF4F2E
:103920000C94432A809180008F7703C0809180009F
:103930008F7D80938000089580918000877FF9CFEC
:1039400084B58F7702C084B58F7D84BD0895809142
:1039500090008F7707C0809190008F7D03C0809189
:103960009000877F8093900008958091C0008F77AA
:1039700003C08091C0008F7D8093C0000895809126
:10398000C200877F8093C2000895CF93DF9390E0B9
:10399000FC01E25AFE4F2491FC01E458FE4F849151
:1039A000882349F190E0880F991FFC01E855FE4FEC
:1039B000A591B49186569E4FFC01C591D4919FB7B5
:1039C000611108C0F8948C91209582238C93888192
:1039D00082230AC0623051F4F8948C91322F3095D2
:1039E00083238C938881822B888304C0F8948C91E4
:1039F000822B8C939FBFDF91CF9108950F931F93DC
:103A0000CF93DF931F92CDB7DEB7282F30E0F901B7
:103A1000E05CFE4F8491F901E25AFE4F1491F901E6
:103A2000E458FE4F04910023C9F0882321F06983F4
:103A30000E94881C6981E02FF0E0EE0FFF1FE65620
:103A4000FE4FA591B4919FB7F8948C91611103C07A
:103A50001095812301C0812B8C939FBF0F90DF9124
:103A6000CF911F910F910895CF93DF931F92CDB700
:103A7000DEB76983DC01ED91FC910280F381E02DDA
:103A800041E050E0BE016F5F7F4F09950F90DF91DD
:103A9000CF910895CF93DF93EC018C859D8597FF9F
:103AA00005C082E00E9409229D878C878C859D85B8
:103AB000DF91CF91089583E00C945E24FC0184850E
:103AC000958597FD06C082E00E94B12190E00196A5
:103AD000089582E00E94B12190E00895FC01848560
:103AE000958597FD05C02FEF3FEF35872487089513
:103AF00082E00C940922CF93DF93EC0180910E01B8
:103B0000882331F083E00E943A221816190634F017
:103B100081E090E09B838A8380E090E0DF91CF9109
:103B20000895FC0120812E5F208342E450E066EB83
:103B300071E080E80C94D522FC0181819081913A5A
:103B400059F4813209F03CC047E050E067E071E091
:103B500080E00E94D52243C0913291F5803239F441
:103B600067E070E087E091E00E94062306C08232A1
:103B700009F035C0828180930E01809107019091F8
:103B80000801A0910901B0910A01803B9440A10570
:103B9000B105C1F480910E0180FD14C087E797E75D
:103BA00090930108809300082BE088E190E00FB625
:103BB000F894A895809360000FBE209360000FC01A
:103BC00080E0089588E10FB6F89480936000109229
:103BD00060000FBEA895109201081092000881E0C5
:103BE00008952FEF3FEFFC01358724870895109249
:103BF000A8061092A70688EE93E0A0E0B0E08093BC
:103C0000A9069093AA06A093AB06B093AC068EE6E5
:103C100091E09093A6068093A5068FEF9FEF909377
:103C2000B2068093B1060895FC01818D228D90E04B
:103C3000805C9F4F821B910960E470E00E94EE2936
:103C40000895FC01918D828D981731F0828DE80FD7
:103C5000F11D858D90E008958FEF9FEF0895FC0191
:103C6000918D828D981761F0828DDF01A80FB11DB3
:103C70005D968C91928D9F5F9F73928F90E00895D7
:103C80008FEF9FEF08958DEA9FE1892B49F080E047
:103C900090E0892B29F00E94AD1F81110C94000047
:103CA0000895FC01848DDF01A80FB11DA35ABF4FF9
:103CB0002C91848D90E001968F739927848FA6892B
:103CC000B7892C93A089B1898C9180648C93938D52
:103CD000848D981306C00288F389E02D80818F7D42
:103CE00080830895CF93DF93EC01888D8823C9F0FA
:103CF000EA89FB89808185FD05C0A889B9898C91F5
:103D000086FD0FC00FB607FCF5CF808185FFF2CF8F
:103D1000A889B9898C9185FFEDCFCE010E94511EF3
:103D2000E7CFDF91CF910895CF92DF92FF920F936B
:103D30001F93CF93DF931F92CDB7DEB76C01DC01E9
:103D40005B969C915B975C968C915C97981307C0EF
:103D50005096ED91FC915197808185FD32C0F6011E
:103D6000038D10E00F5F1F4F0F731127F02EF60128
:103D7000848DF81211C00FB607FCF9CFD60150960A
:103D8000ED91FC915197808185FFF1CFC601698348
:103D90000E94511E6981EBCF838DE80FF11DE35A1C
:103DA000FF4F6083D6015B960C935B975296ED9123
:103DB000FC91539780818062808381E058968C9338
:103DC0000DC0D6015696ED91FC91579760835096A1
:103DD000ED91FC91519780818064808381E090E037
:103DE0000F90DF91CF911F910F91FF90DF90CF90B7
:103DF0000895BF92CF92DF92EF92FF92CF93DF931D
:103E0000EC016A017B01B22E60E874E88EE190E07B
:103E1000A70196010E94022A215031094109510946
:103E20005695479537952795E889F98982E08083EB
:103E3000211580E1380798F0E889F989108260E45B
:103E400072E48FE090E0A70196010E94022A2150BF
:103E50003109410951095695479537952795EC85C4
:103E6000FD853083EE85FF852083188EEC89FD89E2
:103E7000B082EA89FB89808180618083EA89FB893D
:103E8000808188608083EA89FB8980818068808363
:103E9000EA89FB8980818F7D8083DF91CF91FF90BC
:103EA000EF90DF90CF90BF9008951F920F920FB6C2
:103EB0000F9211242F938F939F93EF93FF93E09191
:103EC0000507F09106078081E0910B07F0910C0740
:103ED00082FD12C0908180910E078F5F8F732091B9
:103EE0000F07821751F0E0910E07F0E0EB50F94F09
:103EF000958F80930E0701C08081FF91EF919F9174
:103F00008F912F910F900FBE0F901F9018951F92B9
:103F10000F920FB60F9211242F933F934F935F93FD
:103F20006F937F938F939F93AF93BF93EF93FF9381
:103F300085EF96E00E94511EFF91EF91BF91AF91E6
:103F40009F918F917F916F915F914F913F912F91B1
:103F50000F900FBE0F901F90189585EF96E00E946E
:103F6000141E21E0892B09F420E0822F089510927D
:103F7000F8061092F70688EE93E0A0E0B0E0809398
:103F8000F9069093FA06A093FB06B093FC068EE721
:103F900091E09093F6068093F5068DEC90E0909377
:103FA0000207809301078CEC90E0909304078093C4
:103FB000030788EC90E0909306078093050789EC4F
:103FC00090E090930807809307078AEC90E0909325
:103FD0000A07809309078EEC90E090930C0780937A
:103FE0000B0710920E0710920F07109210071092F5
:103FF0001107089508950E94011C0E94FA1F82E98A
:1040000097E00E94BE240E94CC01C3E4DEE10E943E
:1040100097032097E1F30E94431EF9CFCF92DF92DE
:10402000EF92FF920F931F93CF93DF936C017A016E
:10403000EB01E60EF71E00E010E0CE15DF0561F0A3
:104040006991D601ED91FC910190F081E02DC601BE
:104050000995080F191FF1CFC801DF91CF911F916A
:104060000F91FF90EF90DF90CF900895611571054B
:1040700081F0DB010D900020E9F7AD0141505109BD
:10408000461B570BDC01ED91FC910280F381E02D82
:10409000099480E090E00895DC01ED91FC9101909D
:1040A000F081E02D09940F931F93CF93DF93EC01E0
:1040B0006DE00E944C208C016AE0CE010E944C20F1
:1040C000800F911FDF91CF911F910F9108950F9352
:1040D0001F93CF93DF93EC010E9436208C01CE0119
:1040E0000E945320800F911FDF91CF911F910F915C
:1040F00008958F929F92AF92BF92CF92DF92EF92EC
:10410000FF920F931F93CF93DF93CDB7DEB7A197A5
:104110000FB6F894DEBF0FBECDBF7C01C42EE52FD5
:10412000CB01D22E19A221E02D1510F02AE0D22EBB
:104130008E010F5D1F4F8D2C912CA12CB12C6C2D5D
:104140007E2FA50194010E94022A8C2DD29E8019F7
:104150001124015011098A3014F4805D01C0895C7A
:10416000F8018083211531054105510521F0C22E4A
:10417000E32FCA01E4CFB801C7010E943620A196FF
:104180000FB6F894DEBF0FBECDBFDF91CF911F9168
:104190000F91FF90EF90DF90CF90BF90AF909F90E6
:1041A0008F900895CF92DF92EF92FF920F931F931B
:1041B000CF93DF93EC016A017B012115310579F47E
:1041C000E881F9810190F081E02D642FDF91CF919A
:1041D0001F910F91FF90EF90DF90CF9009942A30BC
:1041E0003105E9F477FF1AC06DE20E944C208C0182
:1041F00044275527BA014C195D096E097F092AE049
:10420000CE010E947920800F911FDF91CF911F91E5
:104210000F91FF90EF90DF90CF9008952AE0B701C3
:10422000A601CE01DF91CF911F910F91FF90EF90EA
:10423000DF90CF900C9479209A01AB01662757FD4F
:104240006095762F0C94D2202115310541F4DC01C4
:10425000ED91FC910190F081E02D642F09940C9474
:1042600079209A01462F50E060E070E00C94242100
:1042700040919607509197072091940730919507A8
:1042800042175307B4F49091E8009570E1F39091D0
:10429000E80092FD19C08093F100809196079091FB
:1042A000970701968F739927892B19F48EEF8093C6
:1042B000E800809196079091970701969093970751
:1042C0008093960781E0089580E00895CF92DF9271
:1042D000FF920F931F93CF93DF931F92CDB7DEB75B
:1042E000082F162F862F880F8E5F99830E94382102
:1042F00083E00E943821F02EC02E9981D92E8C2D7A
:104300008F19811778F4F60184910E943821082FC3
:1043100080E00E9438218023FFEFCF1ADF0A81114D
:10432000EECF01C081E00F90DF91CF911F910F91EF
:10433000FF90DF90CF900895615030F02091F10010
:10434000FC0120830196F8CF289884E68093990792
:1043500008952FB7FC012083F89467706093E900FB
:104360000895CF93DF931F92CDB7DEB7682FCE01AC
:1043700001960E94A9218091F20099819FBF0F9020
:10438000DF91CF910895FF920F931F93CF93DF9307
:1043900000D0CDB7DEB7F62E8A0190919807992309
:1043A00011F057FF03C08FEF9FEF2BC0682FCE0196
:1043B00001967A830E94A9218091F20090E0A801E1
:1043C0007A81801791070CF4AC01EF2DF72FF40ED2
:1043D00084E6FE1639F02898809399079091F100B1
:1043E0009193F7CF4115510521F08091F200882378
:1043F00021F089818FBFCA0104C08BE68093E80059
:10440000F8CF0F900F90DF91CF911F910F91FF90F8
:104410000895CF93DF931F92CDB7DEB741E050E010
:10442000BE016F5F7F4F0E94C321019719F48981FC
:1044300090E002C08FEF9FEF0F90DF91CF91089532
:10444000CF93DF931F92CDB7DEB7682FCE010196D1
:104450000E94A9219091E800892F807295FF04C0E5
:104460009091F20080E4891B99819FBF0F90DF91AA
:10447000CF9108956F927F928F929F92AF92BF9249
:10448000CF92DF92EF92FF920F931F93CF93DF9320
:104490001F92CDB7DEB7782E7B01C42EB52E80914A
:1044A0009807882369F0042F152F8AEFD82E872DBF
:1044B0008072982E9AE3A92E872D8074882E11C0C1
:1044C0008FEF9FEF57C0872D0E942022682E811109
:1044D0000CC0DA94A9F361E070E080E090E00E9403
:1044E000CE1B0115110579F73BC0282F30E00217CC
:1044F00013070CF4602E672DCE0101960E94A921AE
:104500008091E80085FF29C0262D30E0021B130BA7
:10451000992039F06A948FEF6816B1F01092F1008B
:10452000F9CFF701862D77FE07C0815058F094919E
:104530009093F1003196F9CF815020F091919093B2
:10454000F100FACFE20EF31E8091E80085FF0FC064
:104550000115110511F481100AC089818FBFC1CFE7
:104560005D9884E680939A078C2D9B2D03C0A092C2
:10457000E800F3CF0F90DF91CF911F910F91FF9043
:10458000EF90DF90CF90BF90AF909F908F907F90F3
:104590006F9008951092E900109297071092960775
:1045A00090939507809394070895CF92DF92FF929E
:1045B0000F931F93CF93DF9300D0CDB7DEB7F82EC4
:1045C0008A016B0101151105B1F0F601F7FE02C079
:1045D000849101C0808149835A830E94382101500F
:1045E0001109FFEFCF1ADF0A49815A818111EACF01
:1045F0008FEF9FEF01C0CA010F900F90DF91CF9115
:104600001F910F91FF90DF90CF9008951F93CF934C
:10461000DF931F92CDB7DEB7162F2091E80022FF5F
:10462000FCCF612F79830E949C218BEF8093E8005F
:10463000812F7981972F0F90DF91CF911F9108954E
:10464000CF93DF931F92CDB7DEB71982CE010196CB
:104650000E94911DCE0101960E946226898190E000
:104660000F90DF91CF9108951F920F920FB60F9286
:104670001124EF92FF920F931F932F933F934F9329
:104680005F936F937F938F939F93AF93BF93EF93BA
:10469000FF93CF93DF93CDB7DEB76297DEBFCDBF79
:1046A0001092E9008091E80083FFEBC068E0CE0142
:1046B0000A960E949C2182EF8093E8009A8597FFDA
:1046C00005C08091E80080FFFCCF03C08EEF80938F
:1046D000E800892F807609F0B9C08B85811105C06B
:1046E0001092F1001092F100C5C0282F2D7F2130CB
:1046F00009F4C0C0853049F48091E80080FFFCCF08
:104700008C8580688093E300B5C0863009F076C060
:104710002D85E888F988223071F580E090E02A8BB9
:104720000E94CA220E94202399E08E010F5F1F4F32
:10473000F801392F11923A95E9F799832A892A834A
:1047400091E09E8390E898879AEF99872091960749
:1047500030919707275F3F4F3C832B838D83C701A1
:104760000E94CA2249E050E0B80180E00E94D522B0
:104770000E9420237FC0C7012A8B0E94CA222A8957
:10478000223241F482E290E00E946D26892B09F0EA
:1047900071C074C0213069F488899989089711F42F
:1047A0002093930780919307811118C06FE072E006
:1047B0001AC0233009F062C08C85882391F08230C2
:1047C00021F46BE08AE292E006C0813009F056C025
:1047D00068E081E292E00E9466214AC06DEF71E0DC
:1047E00002C066E372E06115710509F447C0FB0180
:1047F000449150E080E80E94D5223CC0873009F403
:104800003DC0883021F481E08093F10033C08930CD
:1048100089F5937099F5E9EFF1E081E021E096E305
:104820008093E9002093EB0034913093EC00909357
:10483000ED008F5F3196853099F78EE78093EA001F
:104840001092EA008C858093980714C08889998912
:104850000E94CA228E85811105C0CE010A960E944F
:104860009C1D06C0823051F4CE010A960E94952606
:10487000882321F08EEF8093E80003C081E28093CB
:10488000EB0062960FB6F894DEBF0FBECDBFDF918E
:10489000CF91FF91EF91BF91AF919F918F917F91B8
:1048A0006F915F914F913F912F911F910F91FF90C9
:1048B000EF900F900FBE0F901F9018958093E90016
:1048C0008091F200882319F08AE38093E80008952C
:1048D0001F920F920FB60F9211242F933F934F9375
:1048E0005F936F937F938F939F93AF93BF93EF9358
:1048F000FF938091E1001092E10083FF0FC01092BE
:10490000E90091E09093EB001092EC0092E3909319
:10491000ED001092980798E09093F00082FF1DC080
:1049200083E00E945E2480919A07882339F0809169
:104930009A07815080939A07882369F0809199079C
:10494000882359F0809199078150809399078111AC
:1049500004C0289A02C05D9AF1CFFF91EF91BF91F8
:10496000AF919F918F917F916F915F914F913F9107
:104970002F910F900FBE0F901F90189510929807CF
:1049800081E08093D70080EA8093D80082E089BDDF
:1049900009B400FEFDCF61E070E080E090E00E948D
:1049A000CE1B80E98093D8008CE08093E2001092C7
:1049B000E000559A209A0895FC01808191810C9421
:1049C000F52ACF93DF93EC0188819981009711F04C
:1049D0000E94F52A198218821D821C821B821A826B
:1049E000DF91CF9108950F931F93CF93DF93EC0145
:1049F0008B016F5F7F4F888199810E94842B009784
:104A000031F0998388831B830A8381E001C080E0B1
:104A1000DF91CF911F910F910895CF93DF93EC0118
:104A200088819981892B29F08A819B818617970734
:104A300060F4CE010E94F324882341F08C819D8193
:104A4000892B19F4E881F981108281E0DF91CF91FF
:104A50000895EF92FF920F931F93CF93DF93EC0192
:104A60007B018A01BA010E940D25811104C0CE018B
:104A70000E94E12407C01D830C83B70188819981BE
:104A80000E94892CCE01DF91CF911F910F91FF9051
:104A9000EF900895FC011182108213821282158218
:104AA00014826115710559F0FB0101900020E9F7AE
:104AB000AF0141505109461B570B0C94292508950D
:104AC000CF93DF93EC01FB018617970761F06081BC
:104AD00071816115710529F0448155810E94292554
:104AE00002C00E94E124CE01DF91CF910895FC0124
:104AF0001182108213821282158214820C94602516
:104B0000CF93DF93EC016115710561F0FB0101901A
:104B10000020E9F7AF0141505109461B570B0E9495
:104B2000292502C00E94E124CE01DF91CF91089592
:104B3000EF92FF920F931F93CF93DF93EC017B01D2
:104B40000C811D816115710511F480E016C04115BD
:104B5000510591F0040F151FB8010E940D258823FF
:104B6000A1F3288139818C819D81B701820F931F28
:104B70000E94892C1D830C8381E0DF91CF911F91CE
:104B80000F91FF90EF900895CF93DF9300D0CDB7B2
:104B9000DEB769831A8241E050E0BE016F5F7F4F4C
:104BA0000E9498250F900F90DF91CF910895CF9399
:104BB000DF93FC01848195814817590778F4C081FF
:104BC000D181772767FD7095CE01840F951F0E94D4
:104BD0007E2C009719F08C1B9D0B02C08FEF9FEF6E
:104BE000DF91CF910895BF92CF92DF92EF92FF9223
:104BF0000F931F93CF93DF936C017B01EA0189012F
:104C00002417350720F48D2FE901042F182F69E5AB
:104C100071E0C6010E944A25D70114968D919C919E
:104C20001597C817D907C8F48017910708F48C01A5
:104C3000D701ED91FC911197E00FF11FB080108228
:104C40006D917C916C0F7D1FC6010E948025D7015C
:104C5000ED91FC91E00FF11FB082C601DF91CF9181
:104C60001F910F91FF90EF90DF90CF90BF9008952C
:104C7000FC0180819181009711F00C944E2C60E032
:104C800070E0CB0108950895FF920F931F93CF9387
:104C9000DF93EC01F62EE881F9810480F581E02DA7
:104CA00009958C01E881F9810680F781E02D6F2D4F
:104CB000CE010995C8019927DF91CF911F910F91DE
:104CC000FF900895FC0120812F5F208349E150E08F
:104CD0006AEB72E080E80C94D52245E650E063ED83
:104CE00072E080E80C94D522EF92FF920F931F930D
:104CF000CF93DF931F92CDB7DEB789838B017A0103
:104D000041E050E0BE016F5F7F4F84E00E943A2295
:104D1000A701B80184E40E943A220F90DF91CF915D
:104D20001F910F91FF90EF900895FC019181808178
:104D3000813A31F481E0913091F0933089F411C0DF
:104D4000813271F49B3021F482818093100105C07F
:104D50009A3031F4828180930F0181E008950895A3
:104D600080E0089548E050E082E00C947426CF93F0
:104D7000DF93DC01683818F0E8E7E60F25C0E62F7E
:104D8000F0E067FF11C0E058F10981E090E001C058
:104D9000880FEA95EAF714969C911497982B14962D
:104DA0009C931497E0E010C0E65CFD4FE491EE2385
:104DB00009F440C0E7FF08C014968C9114978260F4
:104DC00014968C931497EF7716968C9116978E17EE
:104DD00041F117968C9117978E1719F118968C91AF
:104DE00018978E17F1F019968C9119978E17C9F0B4
:104DF0001A968C911A978E17A1F01B968C911B977F
:104E00008E1779F080E090E0ED01C80FD91F2E8158
:104E1000211102C0EE8305C0019686309105A1F7ED
:104E200009C0BD016C5F7F4FCD010E94B22681E0B9
:104E300090E008C081E090E013969C938E931297C7
:104E400080E090E0DF91CF910895683818F0E8E7AE
:104E5000E60F25C0E62FF0E067FF12C0E058F10929
:104E600021E030E001C0220FEA95EAF72095DC014D
:104E700014963C911497322314963C93E0E00FC0B3
:104E8000E65CFD4FE491EE2329F1E7FF08C0DC0169
:104E900014962C9114972D7F14962C93EF7720E085
:104EA00030E0EE2351F0DC01A20FB31F16964C91B7
:104EB00016974E1302C016961C922F5F3F4F263056
:104EC000310579F7BC016C5F7F4F0E94B22681E00B
:104ED00090E0089580E090E00895FC01168217822A
:104EE00010861186128613861482BC016C5F7F4F78
:104EF0000C94B2261092A70710929E0710929D075D
:104F00008EE891E090939C0780939B0708955058FA
:104F1000BB27AA270ED04DC13ED130F043D120F09F
:104F200031F49F3F11F41EF433C10EF4E095E7FB1A
:104F300029C1E92F4FD180F3BA176207730784079D
:104F4000950718F071F49EF567C10EF4E0950B2EED
:104F5000BA2FA02D0B01B90190010C01CA01A001CB
:104F60001124FF27591B99F0593F50F4503E68F126
:104F70001A16F040A22F232F342F4427585FF3CF67
:104F8000469537952795A795F0405395C9F77EF438
:104F90001F16BA0B620B730B840BBAF09150A1F081
:104FA000FF0FBB1F661F771F881FC2F70EC0BA0F07
:104FB000621F731F841F48F4879577956795B7958F
:104FC000F7959E3F08F0B3CF9395880F08F0992787
:104FD000EE0F9795879508950CD0EBC0E3D040F085
:104FE000DAD030F021F45F3F19F0CCC0511115C177
:104FF000CFC0F0D098F39923C9F35523B1F3951B93
:10500000550BBB27AA2762177307840738F09F5FE9
:105010005F4F220F331F441FAA1FA9F333D00E2E58
:105020003AF0E0E830D091505040E695001CCAF7C5
:1050300029D0FE2F27D0660F771F881FBB1F26178A
:1050400037074807AB07B0E809F0BB0B802DBF015D
:10505000FF2793585F4F2AF09E3F510568F092C09A
:10506000DCC05F3FECF3983EDCF38695779567955F
:10507000B795F7959F5FC9F7880F911D969587950E
:1050800097F90895E1E0660F771F881FBB1F62172D
:1050900073078407BA0720F0621B730B840BBA0BEB
:1050A000EE1F88F7E095089504D06894B111B5C05B
:1050B000089598D088F09F5790F0B92F9927B7514D
:1050C000A0F0D1F0660F771F881F991F1AF0BA95CC
:1050D000C9F712C0B13081F09FD0B1E008959CC0F3
:1050E000672F782F8827B85F39F0B93FCCF38695C2
:1050F00077956795B395D9F73EF49095809570951F
:1051000061957F4F8F4F9F4F0895E89409C097FB9B
:105110003EF490958095709561957F4F8F4F9F4F8E
:105120009923A9F0F92F96E9BB279395F6958795D2
:1051300077956795B795F111F8CFFAF4BB0F11F495
:1051400060FF1BC06F5F7F4F8F4F9F4F16C088233C
:1051500011F096E911C0772321F09EE8872F762F72
:1051600005C0662371F096E8862F70E060E02AF0B3
:105170009A95660F771F881FDAF7880F969587959F
:1051800097F9089597F99F6780E870E060E00895C7
:105190009FEF80EC089500240A941616170618064F
:1051A0000906089500240A9412161306140605062B
:1051B0000895092E0394000C11F4882352F0BB0FBC
:1051C00040F4BF2B11F460FF04C06F5F7F4F8F4F1F
:1051D0009F4F089557FD9058440F551F59F05F3F5A
:1051E00071F04795880F97FB991F61F09F3F79F009
:1051F00087950895121613061406551FF2CF46958B
:10520000F1DF08C0161617061806991FF1CF86950C
:105210007105610508940895E894BB2766277727F0
:10522000CB0197F908950EF0A6C0B2CF6894AACF2B
:10523000D9DFC8F39923D1F3C6F3DF93CF931F933C
:105240000F93FF92C92FDD2788232AF02197660F3D
:10525000771F881FDAF720E030E040E85FEB9FE33C
:10526000883920F0803E30F021968F7751DEEAEDCC
:10527000F0E003C04DDEE7E0F1E08BD08B01BE0132
:10528000EC01FB2E6F5771097595771F880B990BF1
:105290003EDF28E132E741E35FE316D0AF2D98010E
:1052A000AE01FF900F911F91CF91DF9142DE81CF30
:1052B0000BD07FCF70DF28F075DF18F0952309F051
:1052C00061CF66CF1124A9CF85DFA0F3959FD1F3DD
:1052D000950F50E0551F629FF001729FBB27F00DA4
:1052E000B11D639FAA27F00DB11DAA1F649F6627F9
:1052F000B00DA11D661F829F2227B00DA11D621F48
:10530000739FB00DA11D621F839FA00D611D221F01
:10531000749F3327A00D611D231F849F600D211DE5
:10532000822F762F6A2F11249F5750408AF0E1F088
:1053300088234AF0EE0FFF1FBB1F661F771F881FD1
:1053400091505040A9F79E3F510570F01BCF65CF9B
:105350005F3FECF3983EDCF3869577956795B795BC
:10536000F795E7959F5FC1F7FE2B880F911D9695E6
:10537000879597F908959F3F31F0915020F48795D4
:1053800077956795B795880F911D9695879597F9AD
:105390000895DF93CF931F930F93FF92EF92DF92C5
:1053A0007B018C01689405C0DA2EEF018DDFFE01D0
:1053B000E894A5912591359145915591AEF3EF0172
:1053C000B8DDFE019701A801DA9479F7DF90EF903C
:1053D000FF900F911F91CF91DF91089597FB072EBA
:1053E00016F4009407D077FD09D00E94492A07FCE3
:1053F00005D03EF4909581959F4F089570956195E5
:105400007F4F0895A1E21A2EAA1BBB1BFD010DC000
:10541000AA1FBB1FEE1FFF1FA217B307E407F50764
:1054200020F0A21BB30BE40BF50B661F771F881F40
:10543000991F1A9469F760957095809590959B01D6
:10544000AC01BD01CF010895052E97FB1EF4009419
:105450000E943B2A57FD07D00E94022A07FC03D076
:105460004EF40C943B2A50954095309521953F4F32
:105470004F4F5F4F089590958095709561957F4F40
:105480008F4F9F4F0895EE0FFF1F0590F491E02D71
:105490000994AA1BBB1B51E107C0AA1FBB1FA6177B
:1054A000B70710F0A61BB70B881F991F5A95A9F7CD
:1054B00080959095BC01CD010895CF93DF93823004
:1054C000910510F482E090E0E091AA07F091AB071B
:1054D00020E030E0A0E0B0E0309739F14081518128
:1054E00048175907B8F04817590771F4828193811A
:1054F000109729F013969C938E9312972CC090933B
:10550000AB078093AA0727C02115310531F0421758
:10551000530718F0A901DB0101C0EF019A01BD0199
:10552000DF010280F381E02DD7CF21153105F9F09D
:10553000281B390B2430310580F48A819B81611549
:10554000710521F0FB019383828304C09093AB0724
:105550008093AA07FE01329644C0FE01E20FF31FBA
:105560008193919322503109398328833AC0209145
:10557000A8073091A907232B41F420910201309113
:1055800003013093A9072093A807209100013091CF
:1055900001012115310541F42DB73EB740910401B9
:1055A00050910501241B350BE091A807F091A90744
:1055B000E217F307A0F42E1B3F0B2817390778F0EA
:1055C000AC014E5F5F4F2417350748F04E0F5F1F49
:1055D0005093A9074093A8078193919302C0E0E0FC
:1055E000F0E0CF01DF91CF910895CF93DF93009743
:1055F00009F487C0FC01329713821282C091AA0776
:10560000D091AB07209781F420813181280F391F79
:105610008091A8079091A9078217930779F5F093D5
:10562000A907E093A8076DC0DE0120E030E0AE17C7
:10563000BF0750F412964D915C9113979D0141154F
:10564000510509F1DA01F3CFB383A283408151817F
:10565000840F951F8A179B0771F48D919C91119768
:10566000840F951F02969183808312968D919C9151
:105670001397938382832115310529F4F093AB07A7
:10568000E093AA073EC0D9011396FC93EE931297BC
:105690004D915D91A40FB51FEA17FB0779F4808146
:1056A0009181840F951F0296D90111969C938E9338
:1056B0008281938113969C938E931297E0E0F0E0A1
:1056C0008A819B81009719F0FE01EC01F9CFCE0190
:1056D000029628813981820F931F2091A80730916B
:1056E000A9072817390769F4309729F41092AB07F6
:1056F0001092AA0702C013821282D093A907C09306
:10570000A807DF91CF910895A0E0B0E0EAE8FBE2BE
:105710000C94A92CEC01CB01209719F40E945D2A6E
:10572000B8C0FE01E60FF71F9E0122503109E217B3
:10573000F30708F4ACC0D9010D911C91119706171D
:105740001707B8F00530110508F49FC0A8014450B0
:1057500051094617570708F498C002501109061B53
:10576000170B019311936D937C93CF010E94F52A3F
:105770008CC05B01A01AB10A4E01800E911EA0914F
:10578000AA07B091AB07612C712C60E070E0109714
:1057900009F449C0A815B905C9F5ED90FC90119719
:1057A000670142E0C40ED11CCA14DB0478F1470142
:1057B0008A189B08640142E0C40ED11C1296BC906A
:1057C00012971396AC91B5E0CB16D10440F0B2829B
:1057D000A38391828082D9018D939C9309C00E5F2F
:1057E0001F4F0E0D1F1DF90111830083EB2DFA2FA2
:1057F0006115710531F0DB011396FC93EE9312975E
:1058000044C0F093AB07E093AA073FC06D917C9131
:1058100011976616770608F43B01BD0112960D90AC
:10582000BC91A02DB4CF6091A8077091A90768150D
:105830007905E9F468167906D0F440910001509199
:1058400001014115510541F44DB75EB76091040166
:1058500070910501461B570BE417F507C0F4F09350
:10586000A907E093A807F901918380830EC00E94E5
:105870005D2A7C01009759F0A801BE010E94752C99
:10588000CE010E94F52AC70104C0CE0102C080E00B
:1058900090E0CDB7DEB7EEE00C94C52C1F93FC0171
:1058A00099278827BC01E89411911032E9F3193047
:1058B00010F01E30C8F31B3251F01D3249F46894C9
:1058C00006C00E94902C610F711D811D911D1191C8
:1058D00010531A30B0F33EF4909580957095619511
:1058E0007F4F8F4F9F4F1F910895FB01DC0102C036
:1058F00001900D9241505040D8F70895FC018191DC
:10590000861721F08823D9F7992708953197CF0179
:105910000895FB01DC0101900D920020E1F708954C
:10592000592F482F372F262F660F771F881F991F53
:10593000660F771F881F991F620F731F841F951FA3
:10594000660F771F881F991F08952F923F924F92DD
:105950005F926F927F928F929F92AF92BF92CF92FF
:10596000DF92EF92FF920F931F93CF93DF93CDB708
:10597000DEB7CA1BDB0B0FB6F894DEBF0FBECDBF80
:1059800009942A88398848885F846E847D848C8451
:105990009B84AA84B984C884DF80EE80FD800C815A
:1059A0001B81AA81B981CE0FD11D0FB6F894DEBF3D
:1059B0000FBECDBFED01089513E0C2E4D3E004C0F3
:1059C000FE010E94452A2296C434D107C9F7F894F3
:0259D000FFCF07
:1059D2000000AC0780000100E100000000000001AF
:1059E200014572726F723A204932432064657669CA
:1059F2006365206E6F7420666F756E640045727207
:105A02006F723A204E6F7420616E204D4D413836D0
:105A12003532004572726F723A204E6F7420616E99
:105A22002046584D53333131300000000000CB186E
:105A32009E1873187B188E189D1800000000341DE4
:105A42007B1D5E1D6E1D4A1D5B1D00000000941E25
:105A52000E20141E2F1E211E721E0000000044265E
:085A62000E20B72625276D2751
:00000001FF
